:100000000C9446000C9465000C9465000C946500FB
:100010000C9465000C9465000C9465000C946500CC
:100020000C9465000C9465000C9465000C946500BC
:100030000C9465000C9465000C9465000C946500AC
:100040000C9465000C9465000C9465000C9465009C
:100050000C9465000C9465000C9465000C9465008C
:100060000C9465000C9465000C9465000C9465007C
:100070000C9465000C9465000C9465000C9465006C
:100080000C9465000C9465000C94650011241FBE4F
:10009000CFEFD0E4DEBFCDBF11E0A0E0B1E0E6E1FC
:1000A000F3E000E00BBF02C007900D92AE30B10745
:1000B000D9F721E0AEE0B1E001C01D92A431B20752
:1000C000E1F70E947A010C9489010C940000CF930F
:1000D000C82F8A3051F09091C00095FFFCCFC0939B
:1000E000C60090E080E0CF9108958DE00E94670007
:1000F000F2CF442349F021E030E002C0220F331F49
:100100006A95E2F7822B089521E030E002C0220FC9
:10011000331F6A95E2F720958223089590E002C08C
:10012000959587956A95E2F78170089580911201FF
:10013000909113018230910509F44DC080F0833015
:10014000910509F44FC0059709F05AC0009B51C0B2
:1001500081E090E090931301809312011DC00097FD
:1001600081F0019709F04CC0009921C080911101E4
:100170008823E9F082E090E09093130180931201CC
:100180000BC010920F0181E08093110181E090E09B
:1001900090931301809312018091120190911301A9
:1001A0008230910591F1039709F46BC0089500998D
:1001B0000BC080911001882339F083E090E0909388
:1001C000130180931201E8CF81E090E09093130136
:1001D00080931201E1CF85E090E09093130180932A
:1001E0001201DACF85E090E0909313018093120121
:1001F000D3CF85E090E09093130180931201CCCF90
:100200001092130110921201C7CF80910F01863016
:1002100080F48F5F80930F0180910F01843019F17A
:10022000B0F48230E1F0833041F487E080930E0136
:1002300009C086E080930F01EFCF813019F481E08F
:1002400080930E0180910E018F33A9F008958530BF
:1002500071F08630B9F78FE380930E01F3CF83E01E
:1002600080930E01EFCF8FE080930E01EBCF8FE1F3
:1002700080930E01E7CF81E080931001109211016D
:10028000089580910F01882381F0815080930F01A0
:1002900080910F01833031F180F4813039F1823067
:1002A00039F483E080930E010FC010920F01F0CF5C
:1002B00081110AC010920E0107C0843079F0853098
:1002C00019F48FE180930E0180910E018111BECF50
:1002D0001092100181E080931101B8CF8FE08093DC
:1002E0000E01F2CF87E080930E01EECF81E0809384
:1002F0000E01EACF11B88FEF87B982B918B8109202
:100300001301109212010E94960080910E0188B98B
:06031000FACFF894FFCFC4
:0E031600000000020000000067000000000070
:00000001FF
