:100000000C9446000C9465000C9465000C946500FB
:100010000C9465000C9465000C9465000C946500CC
:100020000C9465000C9465000C9465000C946500BC
:100030000C9465000C9465000C9465000C946500AC
:100040000C9465000C9465000C9465000C9465009C
:100050000C9465000C9465000C9465000C9465008C
:100060000C9465000C9465000C9465000C9465007C
:100070000C9465000C9465000C9465000C9465006C
:100080000C9465000C9465000C94650011241FBE4F
:10009000CFEFD0E4DEBFCDBF11E0A0E0B1E0E2EAF7
:1000A000F2E000E00BBF02C007900D92A031B10753
:1000B000D9F721E0A0E1B1E001C01D92A231B20761
:1000C000E1F70E9440010C944F010C940000CF9383
:1000D000C82F8A3051F09091C00095FFFCCFC0939B
:1000E000C60090E080E0CF9108958DE00E94670007
:1000F000F2CF442349F021E030E002C0220F331F49
:100100006A95E2F7822B089521E030E002C0220FC9
:10011000331F6A95E2F720958223089590E002C08C
:10012000959587956A95E2F7817008958091100101
:10013000909111018330910509F463C048F5813035
:100140009105B9F18230910539F485E090E0909302
:100150001101809310010CC0892B09F072C087E057
:100160008093000181E090E0909311018093100151
:1001700080911001909111018330910509F472C0B2
:100180008430910509F479C0029709F45FC008959D
:1001900084309105E9F1059709F053C0009B3FC0F9
:1001A000019B3DC081E090E090931101809310018C
:1001B000DFCF009909C0019B07C082E090E09093D7
:1001C000110180931001D4CF009B09C0019907C091
:1001D00083E090E09093110180931001C9CF0099C2
:1001E00009C0019907C084E090E0909311018093C9
:1001F0001001BECF81E090E0909311018093100137
:10020000B7CF85E090E09093110180931001B0CFBB
:1002100085E090E09093110180931001A9CF00999F
:1002200009C0019907C084E090E090931101809388
:1002300010019ECF85E090E0909311018093100112
:1002400097CF109211011092100192CF809100016E
:10025000893020F48F5F80930001089589E08093B6
:100260000001089580910001882321F0815080933E
:10027000000108951092000108951092000187CFA7
:1002800011B88FEF87B982B918B810921101109286
:1002900010010E9496008091000188B9FACFF8946D
:0202A000FFCF8E
:1002A20007000000020000000067000000000000DC
:00000001FF
